{
  "abi": [
    {
      "inputs": [],
      "stateMutability": "nonpayable",
      "type": "constructor"
    },
    {
      "anonymous": false,
      "inputs": [
        {
          "indexed": true,
          "internalType": "address",
          "name": "owner",
          "type": "address"
        },
        {
          "indexed": true,
          "internalType": "address",
          "name": "approved",
          "type": "address"
        },
        {
          "indexed": true,
          "internalType": "uint256",
          "name": "tokenId",
          "type": "uint256"
        }
      ],
      "name": "Approval",
      "type": "event"
    },
    {
      "anonymous": false,
      "inputs": [
        {
          "indexed": true,
          "internalType": "address",
          "name": "owner",
          "type": "address"
        },
        {
          "indexed": true,
          "internalType": "address",
          "name": "operator",
          "type": "address"
        },
        {
          "indexed": false,
          "internalType": "bool",
          "name": "approved",
          "type": "bool"
        }
      ],
      "name": "ApprovalForAll",
      "type": "event"
    },
    {
      "anonymous": false,
      "inputs": [
        {
          "indexed": false,
          "internalType": "uint256",
          "name": "elation",
          "type": "uint256"
        },
        {
          "indexed": false,
          "internalType": "uint256",
          "name": "fed_level",
          "type": "uint256"
        },
        {
          "indexed": false,
          "internalType": "uint256",
          "name": "entertained_level",
          "type": "uint256"
        },
        {
          "indexed": false,
          "internalType": "uint256",
          "name": "checked",
          "type": "uint256"
        },
        {
          "indexed": false,
          "internalType": "string",
          "name": "uri",
          "type": "string"
        },
        {
          "indexed": false,
          "internalType": "uint256",
          "name": "index",
          "type": "uint256"
        }
      ],
      "name": "EmojiUpdated",
      "type": "event"
    },
    {
      "anonymous": false,
      "inputs": [
        {
          "indexed": true,
          "internalType": "address",
          "name": "from",
          "type": "address"
        },
        {
          "indexed": true,
          "internalType": "address",
          "name": "to",
          "type": "address"
        },
        {
          "indexed": true,
          "internalType": "uint256",
          "name": "tokenId",
          "type": "uint256"
        }
      ],
      "name": "Transfer",
      "type": "event"
    },
    {
      "inputs": [
        {
          "internalType": "address",
          "name": "to",
          "type": "address"
        },
        {
          "internalType": "uint256",
          "name": "tokenId",
          "type": "uint256"
        }
      ],
      "name": "approve",
      "outputs": [],
      "stateMutability": "nonpayable",
      "type": "function"
    },
    {
      "inputs": [
        {
          "internalType": "address",
          "name": "owner",
          "type": "address"
        }
      ],
      "name": "balanceOf",
      "outputs": [
        {
          "internalType": "uint256",
          "name": "",
          "type": "uint256"
        }
      ],
      "stateMutability": "view",
      "type": "function"
    },
    {
      "inputs": [
        {
          "internalType": "bytes",
          "name": "",
          "type": "bytes"
        }
      ],
      "name": "checkUpkeep",
      "outputs": [
        {
          "internalType": "bool",
          "name": "upkeepNeeded",
          "type": "bool"
        },
        {
          "internalType": "bytes",
          "name": "",
          "type": "bytes"
        }
      ],
      "stateMutability": "view",
      "type": "function"
    },
    {
      "inputs": [],
      "name": "checkUpkeep",
      "outputs": [],
      "stateMutability": "nonpayable",
      "type": "function"
    },
    {
      "inputs": [],
      "name": "feed",
      "outputs": [],
      "stateMutability": "nonpayable",
      "type": "function"
    },
    {
      "inputs": [
        {
          "internalType": "uint256",
          "name": "tokenId",
          "type": "uint256"
        }
      ],
      "name": "getApproved",
      "outputs": [
        {
          "internalType": "address",
          "name": "",
          "type": "address"
        }
      ],
      "stateMutability": "view",
      "type": "function"
    },
    {
      "inputs": [
        {
          "internalType": "address",
          "name": "owner",
          "type": "address"
        },
        {
          "internalType": "address",
          "name": "operator",
          "type": "address"
        }
      ],
      "name": "isApprovedForAll",
      "outputs": [
        {
          "internalType": "bool",
          "name": "",
          "type": "bool"
        }
      ],
      "stateMutability": "view",
      "type": "function"
    },
    {
      "inputs": [],
      "name": "myPetEmoji",
      "outputs": [
        {
          "internalType": "uint256",
          "name": "",
          "type": "uint256"
        },
        {
          "internalType": "uint256",
          "name": "",
          "type": "uint256"
        },
        {
          "internalType": "uint256",
          "name": "",
          "type": "uint256"
        },
        {
          "internalType": "uint256",
          "name": "",
          "type": "uint256"
        },
        {
          "internalType": "string",
          "name": "",
          "type": "string"
        }
      ],
      "stateMutability": "view",
      "type": "function"
    },
    {
      "inputs": [],
      "name": "name",
      "outputs": [
        {
          "internalType": "string",
          "name": "",
          "type": "string"
        }
      ],
      "stateMutability": "view",
      "type": "function"
    },
    {
      "inputs": [
        {
          "internalType": "uint256",
          "name": "tokenId",
          "type": "uint256"
        }
      ],
      "name": "ownerOf",
      "outputs": [
        {
          "internalType": "address",
          "name": "",
          "type": "address"
        }
      ],
      "stateMutability": "view",
      "type": "function"
    },
    {
      "inputs": [
        {
          "internalType": "uint256",
          "name": "_tokenId",
          "type": "uint256"
        }
      ],
      "name": "passTime",
      "outputs": [],
      "stateMutability": "nonpayable",
      "type": "function"
    },
    {
      "inputs": [
        {
          "internalType": "bytes",
          "name": "",
          "type": "bytes"
        }
      ],
      "name": "performUpkeep",
      "outputs": [],
      "stateMutability": "nonpayable",
      "type": "function"
    },
    {
      "inputs": [
        {
          "internalType": "uint256",
          "name": "",
          "type": "uint256"
        }
      ],
      "name": "petEmojiHolderAttributes",
      "outputs": [
        {
          "internalType": "uint256",
          "name": "petEmojiIndex",
          "type": "uint256"
        },
        {
          "internalType": "string",
          "name": "imageURI",
          "type": "string"
        },
        {
          "internalType": "uint256",
          "name": "elation",
          "type": "uint256"
        },
        {
          "internalType": "uint256",
          "name": "fed_level",
          "type": "uint256"
        },
        {
          "internalType": "uint256",
          "name": "entertained_level",
          "type": "uint256"
        },
        {
          "internalType": "uint256",
          "name": "lastChecked",
          "type": "uint256"
        }
      ],
      "stateMutability": "view",
      "type": "function"
    },
    {
      "inputs": [
        {
          "internalType": "address",
          "name": "",
          "type": "address"
        }
      ],
      "name": "petEmojiHolders",
      "outputs": [
        {
          "internalType": "uint256",
          "name": "",
          "type": "uint256"
        }
      ],
      "stateMutability": "view",
      "type": "function"
    },
    {
      "inputs": [
        {
          "internalType": "uint256",
          "name": "_tokenId",
          "type": "uint256"
        }
      ],
      "name": "petEmojiStats",
      "outputs": [
        {
          "internalType": "uint256",
          "name": "",
          "type": "uint256"
        },
        {
          "internalType": "uint256",
          "name": "",
          "type": "uint256"
        },
        {
          "internalType": "uint256",
          "name": "",
          "type": "uint256"
        },
        {
          "internalType": "uint256",
          "name": "",
          "type": "uint256"
        },
        {
          "internalType": "string",
          "name": "",
          "type": "string"
        }
      ],
      "stateMutability": "view",
      "type": "function"
    },
    {
      "inputs": [],
      "name": "play",
      "outputs": [],
      "stateMutability": "nonpayable",
      "type": "function"
    },
    {
      "inputs": [
        {
          "internalType": "address",
          "name": "to",
          "type": "address"
        }
      ],
      "name": "safeMint",
      "outputs": [],
      "stateMutability": "nonpayable",
      "type": "function"
    },
    {
      "inputs": [
        {
          "internalType": "address",
          "name": "from",
          "type": "address"
        },
        {
          "internalType": "address",
          "name": "to",
          "type": "address"
        },
        {
          "internalType": "uint256",
          "name": "tokenId",
          "type": "uint256"
        }
      ],
      "name": "safeTransferFrom",
      "outputs": [],
      "stateMutability": "nonpayable",
      "type": "function"
    },
    {
      "inputs": [
        {
          "internalType": "address",
          "name": "from",
          "type": "address"
        },
        {
          "internalType": "address",
          "name": "to",
          "type": "address"
        },
        {
          "internalType": "uint256",
          "name": "tokenId",
          "type": "uint256"
        },
        {
          "internalType": "bytes",
          "name": "data",
          "type": "bytes"
        }
      ],
      "name": "safeTransferFrom",
      "outputs": [],
      "stateMutability": "nonpayable",
      "type": "function"
    },
    {
      "inputs": [
        {
          "internalType": "address",
          "name": "operator",
          "type": "address"
        },
        {
          "internalType": "bool",
          "name": "approved",
          "type": "bool"
        }
      ],
      "name": "setApprovalForAll",
      "outputs": [],
      "stateMutability": "nonpayable",
      "type": "function"
    },
    {
      "inputs": [
        {
          "internalType": "bytes4",
          "name": "interfaceId",
          "type": "bytes4"
        }
      ],
      "name": "supportsInterface",
      "outputs": [
        {
          "internalType": "bool",
          "name": "",
          "type": "bool"
        }
      ],
      "stateMutability": "view",
      "type": "function"
    },
    {
      "inputs": [],
      "name": "symbol",
      "outputs": [
        {
          "internalType": "string",
          "name": "",
          "type": "string"
        }
      ],
      "stateMutability": "view",
      "type": "function"
    },
    {
      "inputs": [
        {
          "internalType": "uint256",
          "name": "_tokenId",
          "type": "uint256"
        }
      ],
      "name": "tokenURI",
      "outputs": [
        {
          "internalType": "string",
          "name": "",
          "type": "string"
        }
      ],
      "stateMutability": "view",
      "type": "function"
    },
    {
      "inputs": [
        {
          "internalType": "address",
          "name": "from",
          "type": "address"
        },
        {
          "internalType": "address",
          "name": "to",
          "type": "address"
        },
        {
          "internalType": "uint256",
          "name": "tokenId",
          "type": "uint256"
        }
      ],
      "name": "transferFrom",
      "outputs": [],
      "stateMutability": "nonpayable",
      "type": "function"
    }
  ],
  "bytecode": {
    "object": "0x610d00604052610c4d6080818152906200274460a0396007906200002490826200033f565b506040805160e081018252601560a082018181527f6b7154777664475634644434384c334e325a7a343d000000000000000000000060c08401528252825180840184528181527f596754777664475634644434384c334e325a7a343d000000000000000000000060208281019190915280840191909152835180850185528281527f596b44777664475634644434384c334e325a7a343d00000000000000000000008183015283850152835180850185528281527f596f54777664475634644434384c334e325a7a343d000000000000000000000081830152606084015283518085019094529083527f536744777664475634644434384c334e325a7a343d00000000000000000000009083015260808101919091526200014a906008906005620001c3565b50603c600c553480156200015d57600080fd5b5060405180604001604052806008815260200167506574456d6f6a6960c01b81525060405180604001604052806002815260200161706560f01b8152508160009081620001ab91906200033f565b506001620001ba82826200033f565b5050506200040b565b8280548282559060005260206000209081019282156200020e579160200282015b828111156200020e5782518290620001fd90826200033f565b5091602001919060010190620001e4565b506200021c92915062000220565b5090565b808211156200021c57600062000237828262000241565b5060010162000220565b5080546200024f90620002b0565b6000825580601f1062000260575050565b601f01602090049060005260206000209081019062000280919062000283565b50565b5b808211156200021c576000815560010162000284565b634e487b7160e01b600052604160045260246000fd5b600181811c90821680620002c557607f821691505b602082108103620002e657634e487b7160e01b600052602260045260246000fd5b50919050565b601f8211156200033a57600081815260208120601f850160051c81016020861015620003155750805b601f850160051c820191505b81811015620003365782815560010162000321565b5050505b505050565b81516001600160401b038111156200035b576200035b6200029a565b62000373816200036c8454620002b0565b84620002ec565b602080601f831160018114620003ab5760008415620003925750858301515b600019600386901b1c1916600185901b17855562000336565b600085815260208120601f198616915b82811015620003dc57888601518255948401946001909101908401620003bb565b5085821015620003fb5787850151600019600388901b60f8161c191681555b5050505050600190811b01905550565b612329806200041b6000396000f3fe608060405234801561001057600080fd5b50600436106101585760003560e01c80636e04ff0d116100c3578063acbd15061161007c578063acbd1506146102e4578063b09d662a146102f7578063b88d4fde1461030a578063c87b56dd1461031d578063e985e9c514610330578063f0eeabe51461034357600080fd5b80636e04ff0d1461027f57806370a08231146102a057806393e84cd9146102c157806395d89b41146102c9578063a13abdad146101d8578063a22cb465146102d157600080fd5b806337a7b7d81161011557806337a7b7d81461021257806340d097c31461021a57806342842e0e1461022d57806345515258146102405780634585e33b146102595780636352211e1461026c57600080fd5b806301ffc9a71461015d57806306fdde0314610185578063081812fc1461019a578063095ea7b3146101c557806323b872dd146101da578063255fd5f3146101ed575b600080fd5b61017061016b366004611935565b610363565b60405190151581526020015b60405180910390f35b61018d6103b5565b60405161017c91906119a9565b6101ad6101a83660046119bc565b610447565b6040516001600160a01b03909116815260200161017c565b6101d86101d33660046119f1565b61046e565b005b6101d86101e8366004611a1b565b610588565b6102006101fb3660046119bc565b6105b9565b60405161017c96959493929190611a57565b6101d8610676565b6101d8610228366004611a95565b6106d8565b6101d861023b366004611a1b565b6107da565b6102486107f5565b60405161017c959493929190611ab0565b6101d8610267366004611ae6565b610828565b6101ad61027a3660046119bc565b6108c8565b61029261028d366004611ae6565b610928565b60405161017c929190611b58565b6102b36102ae366004611a95565b61099b565b60405190815260200161017c565b6101d8610a21565b61018d610a5a565b6101d86102df366004611b73565b610a69565b6102486102f23660046119bc565b610a78565b6101d86103053660046119bc565b610b4f565b6101d8610318366004611bc5565b610bea565b61018d61032b3660046119bc565b610c22565b61017061033e366004611ca1565b610d93565b6102b3610351366004611a95565b600b6020526000908152604090205481565b60006001600160e01b031982166380ac58cd60e01b148061039457506001600160e01b03198216635b5e139f60e01b145b806103af57506301ffc9a760e01b6001600160e01b03198316145b92915050565b6060600080546103c490611cd4565b80601f01602080910402602001604051908101604052809291908181526020018280546103f090611cd4565b801561043d5780601f106104125761010080835404028352916020019161043d565b820191906000526020600020905b81548152906001019060200180831161042057829003601f168201915b5050505050905090565b600061045282610dc1565b506000908152600460205260409020546001600160a01b031690565b6000610479826108c8565b9050806001600160a01b0316836001600160a01b0316036104eb5760405162461bcd60e51b815260206004820152602160248201527f4552433732313a20617070726f76616c20746f2063757272656e74206f776e656044820152603960f91b60648201526084015b60405180910390fd5b336001600160a01b038216148061050757506105078133610d93565b6105795760405162461bcd60e51b815260206004820152603e60248201527f4552433732313a20617070726f76652063616c6c6572206973206e6f7420746f60448201527f6b656e206f776e6572206e6f7220617070726f76656420666f7220616c6c000060648201526084016104e2565b6105838383610e20565b505050565b6105923382610e8e565b6105ae5760405162461bcd60e51b81526004016104e290611d0e565b610583838383610eed565b600a60205260009081526040902080546001820180549192916105db90611cd4565b80601f016020809104026020016040519081016040528092919081815260200182805461060790611cd4565b80156106545780601f1061062957610100808354040283529160200191610654565b820191906000526020600020905b81548152906001019060200180831161063757829003601f168201915b5050505050908060020154908060030154908060040154908060050154905086565b336000908152600b6020908152604080832054808452600a9092529091206064600382018190556004909101546002916106b09190611d72565b6106ba9190611d9b565b6000828152600a60205260409020600201556106d581611089565b50565b60006106e360095490565b90506106f3600980546001019055565b6106fd8282611394565b60006007600860008154811061071557610715611daf565b90600052602060002001604051602001610730929190611e38565b60408051601f1981840301815260c083018252848352602083810182815260648585018190526060860181905260808601524260a08601526000878152600a909252929020835181559151909350600182019061078d9082611e9b565b506040828101516002830155606083015160038301556080830151600483015560a090920151600590910155336000908152600b60205220829055610583826107d581610c22565b6113ae565b61058383838360405180602001604052806000815250610bea565b336000908152600b602052604081205481908190819060609061081790610a78565b945094509450945094509091929394565b60008052600a6020527f13da86008ba1c6922daee3e07db95305ef49ebced9f5467a0b8613fcc6b343e8547f13da86008ba1c6922daee3e07db95305ef49ebced9f5467a0b8613fcc6b343e5541580159061088d5750600c5461088b8242611f5b565b115b15610583576000808052600a602052427f13da86008ba1c6922daee3e07db95305ef49ebced9f5467a0b8613fcc6b343e85561058390610b4f565b6000818152600260205260408120546001600160a01b0316806103af5760405162461bcd60e51b8152602060048201526018602482015277115490cdcc8c4e881a5b9d985b1a59081d1bdad95b88125160421b60448201526064016104e2565b6000808052600a6020527f13da86008ba1c6922daee3e07db95305ef49ebced9f5467a0b8613fcc6b343e8547f13da86008ba1c6922daee3e07db95305ef49ebced9f5467a0b8613fcc6b343e55460609190158015906109915750603c61098f8242611f5b565b115b9250509250929050565b60006001600160a01b038216610a055760405162461bcd60e51b815260206004820152602960248201527f4552433732313a2061646472657373207a65726f206973206e6f7420612076616044820152683634b21037bbb732b960b91b60648201526084016104e2565b506001600160a01b031660009081526003602052604090205490565b336000908152600b6020908152604080832054808452600a9092529091206064600482018190556003909101546002916106b091611d72565b6060600180546103c490611cd4565b610a74338383611441565b5050565b6000818152600a60205260408120600281015460038201546004830154600584015460019094018054869586958695606095919490939192918190610abc90611cd4565b80601f0160208091040260200160405190810160405280929190818152602001828054610ae890611cd4565b8015610b355780601f10610b0a57610100808354040283529160200191610b35565b820191906000526020600020905b815481529060010190602001808311610b1857829003601f168201915b505050505090509450945094509450945091939590929450565b6000818152600a6020819052604090912060030154610b6e9190611f5b565b6000828152600a602081905260409091206003810192909255600490910154610b979190611f5b565b6000828152600a602052604090206004810182905560030154600291610bbc91611d72565b610bc69190611d9b565b6000828152600a6020526040902060020155610be181611089565b6106d58161150f565b610bf43383610e8e565b610c105760405162461bcd60e51b81526004016104e290611d0e565b610c1c84848484611575565b50505050565b6000818152600a60209081526040808320815160c08101909252805482526001810180546060959484019190610c5790611cd4565b80601f0160208091040260200160405190810160405280929190818152602001828054610c8390611cd4565b8015610cd05780601f10610ca557610100808354040283529160200191610cd0565b820191906000526020600020905b815481529060010190602001808311610cb357829003601f168201915b5050505050815260200160028201548152602001600382015481526020016004820154815260200160058201548152505090506000610d1282604001516115a8565b90506000610d2383606001516115a8565b90506000610d3484608001516115a8565b905060008460200151838386604051602001610d539493929190611f8a565b6040516020818303038152906040529050600081604051602001610d779190612129565b60408051601f1981840301815291905298975050505050505050565b6001600160a01b03918216600090815260056020908152604080832093909416825291909152205460ff1690565b6000818152600260205260409020546001600160a01b03166106d55760405162461bcd60e51b8152602060048201526018602482015277115490cdcc8c4e881a5b9d985b1a59081d1bdad95b88125160421b60448201526064016104e2565b600081815260046020526040902080546001600160a01b0319166001600160a01b0384169081179091558190610e55826108c8565b6001600160a01b03167f8c5be1e5ebec7d5bd14f71427d1e84f3dd0314c0f7b2291e5b200ac8c7c3b92560405160405180910390a45050565b600080610e9a836108c8565b9050806001600160a01b0316846001600160a01b03161480610ec15750610ec18185610d93565b80610ee55750836001600160a01b0316610eda84610447565b6001600160a01b0316145b949350505050565b826001600160a01b0316610f00826108c8565b6001600160a01b031614610f645760405162461bcd60e51b815260206004820152602560248201527f4552433732313a207472616e736665722066726f6d20696e636f72726563742060448201526437bbb732b960d91b60648201526084016104e2565b6001600160a01b038216610fc65760405162461bcd60e51b8152602060048201526024808201527f4552433732313a207472616e7366657220746f20746865207a65726f206164646044820152637265737360e01b60648201526084016104e2565b610fd1600082610e20565b6001600160a01b0383166000908152600360205260408120805460019290610ffa908490611f5b565b90915550506001600160a01b0382166000908152600360205260408120805460019290611028908490611d72565b909155505060008181526002602052604080822080546001600160a01b0319166001600160a01b0386811691821790925591518493918716917fddf252ad1be2c89b69c2b068fc378daa952ba7f163c4a11628f55a4df523b3ef91a4505050565b6000600860008154811061109f5761109f611daf565b9060005260206000200180546110b490611cd4565b80601f01602080910402602001604051908101604052809291908181526020018280546110e090611cd4565b801561112d5780601f106111025761010080835404028352916020019161112d565b820191906000526020600020905b81548152906001019060200180831161111057829003601f168201915b5050506000858152600a602052604090206002015492935050506064036111fc57600860008154811061116257611162611daf565b90600052602060002001805461117790611cd4565b80601f01602080910402602001604051908101604052809291908181526020018280546111a390611cd4565b80156111f05780601f106111c5576101008083540402835291602001916111f0565b820191906000526020600020905b8154815290600101906020018083116111d357829003601f168201915b50505050509050611345565b6000828152600a60205260409020600201546042101561122a57600860018154811061116257611162611daf565b6000828152600a60205260409020600201546021101561125857600860028154811061116257611162611daf565b6000828152600a60205260409020600201541561128357600860038154811061116257611162611daf565b6000828152600a602052604081206002015490036113455760086004815481106112af576112af611daf565b9060005260206000200180546112c490611cd4565b80601f01602080910402602001604051908101604052809291908181526020018280546112f090611cd4565b801561133d5780601f106113125761010080835404028352916020019161133d565b820191906000526020600020905b81548152906001019060200180831161132057829003601f168201915b505050505090505b600060078260405160200161135b929190612145565b60408051601f198184030181529181526000858152600a602052209091506001016113868282611e9b565b50610583836107d585610c22565b610a748282604051806020016040528060008152506116a9565b6000828152600260205260409020546001600160a01b03166114295760405162461bcd60e51b815260206004820152602e60248201527f45524337323155524953746f726167653a2055524920736574206f66206e6f6e60448201526d32bc34b9ba32b73a103a37b5b2b760911b60648201526084016104e2565b60008281526006602052604090206105838282611e9b565b816001600160a01b0316836001600160a01b0316036114a25760405162461bcd60e51b815260206004820152601960248201527f4552433732313a20617070726f766520746f2063616c6c65720000000000000060448201526064016104e2565b6001600160a01b03838116600081815260056020908152604080832094871680845294825291829020805460ff191686151590811790915591519182527f17307eab39ab6107e8899845ad3d59bd9653f200f220920489ca2b5937696c31910160405180910390a3505050565b6000818152600a602052604090819020600281015460038201546004830154600584015494517ff1aaf53d815d61c85eae2a4774cfc7c4d201982835ea878954a62465535b3a779561156a959091600190910190889061216a565b60405180910390a150565b611580848484610eed565b61158c848484846116dc565b610c1c5760405162461bcd60e51b81526004016104e29061221a565b6060816000036115cf5750506040805180820190915260018152600360fc1b602082015290565b8160005b81156115f957806115e38161226c565b91506115f29050600a83611d9b565b91506115d3565b60008167ffffffffffffffff81111561161457611614611baf565b6040519080825280601f01601f19166020018201604052801561163e576020820181803683370190505b5090505b8415610ee557611653600183611f5b565b9150611660600a86612285565b61166b906030611d72565b60f81b81838151811061168057611680611daf565b60200101906001600160f81b031916908160001a9053506116a2600a86611d9b565b9450611642565b6116b383836117dd565b6116c060008484846116dc565b6105835760405162461bcd60e51b81526004016104e29061221a565b60006001600160a01b0384163b156117d257604051630a85bd0160e11b81526001600160a01b0385169063150b7a0290611720903390899088908890600401612299565b6020604051808303816000875af192505050801561175b575060408051601f3d908101601f19168201909252611758918101906122d6565b60015b6117b8573d808015611789576040519150601f19603f3d011682016040523d82523d6000602084013e61178e565b606091505b5080516000036117b05760405162461bcd60e51b81526004016104e29061221a565b805181602001fd5b6001600160e01b031916630a85bd0160e11b149050610ee5565b506001949350505050565b6001600160a01b0382166118335760405162461bcd60e51b815260206004820181905260248201527f4552433732313a206d696e7420746f20746865207a65726f206164647265737360448201526064016104e2565b6000818152600260205260409020546001600160a01b0316156118985760405162461bcd60e51b815260206004820152601c60248201527f4552433732313a20746f6b656e20616c7265616479206d696e7465640000000060448201526064016104e2565b6001600160a01b03821660009081526003602052604081208054600192906118c1908490611d72565b909155505060008181526002602052604080822080546001600160a01b0319166001600160a01b03861690811790915590518392907fddf252ad1be2c89b69c2b068fc378daa952ba7f163c4a11628f55a4df523b3ef908290a45050565b6001600160e01b0319811681146106d557600080fd5b60006020828403121561194757600080fd5b81356119528161191f565b9392505050565b60005b8381101561197457818101518382015260200161195c565b50506000910152565b60008151808452611995816020860160208601611959565b601f01601f19169290920160200192915050565b602081526000611952602083018461197d565b6000602082840312156119ce57600080fd5b5035919050565b80356001600160a01b03811681146119ec57600080fd5b919050565b60008060408385031215611a0457600080fd5b611a0d836119d5565b946020939093013593505050565b600080600060608486031215611a3057600080fd5b611a39846119d5565b9250611a47602085016119d5565b9150604084013590509250925092565b86815260c060208201526000611a7060c083018861197d565b90508560408301528460608301528360808301528260a0830152979650505050505050565b600060208284031215611aa757600080fd5b611952826119d5565b85815284602082015283604082015282606082015260a060808201526000611adb60a083018461197d565b979650505050505050565b60008060208385031215611af957600080fd5b823567ffffffffffffffff80821115611b1157600080fd5b818501915085601f830112611b2557600080fd5b813581811115611b3457600080fd5b866020828501011115611b4657600080fd5b60209290920196919550909350505050565b8215158152604060208201526000610ee5604083018461197d565b60008060408385031215611b8657600080fd5b611b8f836119d5565b915060208301358015158114611ba457600080fd5b809150509250929050565b634e487b7160e01b600052604160045260246000fd5b60008060008060808587031215611bdb57600080fd5b611be4856119d5565b9350611bf2602086016119d5565b925060408501359150606085013567ffffffffffffffff80821115611c1657600080fd5b818701915087601f830112611c2a57600080fd5b813581811115611c3c57611c3c611baf565b604051601f8201601f19908116603f01168101908382118183101715611c6457611c64611baf565b816040528281528a6020848701011115611c7d57600080fd5b82602086016020830137600060208483010152809550505050505092959194509250565b60008060408385031215611cb457600080fd5b611cbd836119d5565b9150611ccb602084016119d5565b90509250929050565b600181811c90821680611ce857607f821691505b602082108103611d0857634e487b7160e01b600052602260045260246000fd5b50919050565b6020808252602e908201527f4552433732313a2063616c6c6572206973206e6f7420746f6b656e206f776e6560408201526d1c881b9bdc88185c1c1c9bdd995960921b606082015260800190565b634e487b7160e01b600052601160045260246000fd5b808201808211156103af576103af611d5c565b634e487b7160e01b600052601260045260246000fd5b600082611daa57611daa611d85565b500490565b634e487b7160e01b600052603260045260246000fd5b60008154611dd281611cd4565b60018281168015611dea5760018114611dff57611e2e565b60ff1984168752821515830287019450611e2e565b8560005260208060002060005b85811015611e255781548a820152908401908201611e0c565b50505082870194505b5050505092915050565b6000610ee5611e478386611dc5565b84611dc5565b601f82111561058357600081815260208120601f850160051c81016020861015611e745750805b601f850160051c820191505b81811015611e9357828155600101611e80565b505050505050565b815167ffffffffffffffff811115611eb557611eb5611baf565b611ec981611ec38454611cd4565b84611e4d565b602080601f831160018114611efe5760008415611ee65750858301515b600019600386901b1c1916600185901b178555611e93565b600085815260208120601f198616915b82811015611f2d57888601518255948401946001909101908401611f0e565b5085821015611f4b5787850151600019600388901b60f8161c191681555b5050505050600190811b01905550565b818103818111156103af576103af611d5c565b60008151611f80818560208601611959565b9290920192915050565b7f7b226e616d65223a2022596f7572204c6974746c6520456d6f6a6920506574228152600b60fa1b60208201527f226465736372697074696f6e223a20224b65657020796f7572207065742068616021820152651c1c1e48488b60d21b6041820152691134b6b0b3b2911d101160b11b604782015260008551612014816051850160208a01611959565b61088b60f21b6051918401918201526a22747261697473223a205b60a81b60538201527f7b2274726169745f74797065223a20226665645f6c6576656c222c2276616c75605e82015263032911d160e51b607e820152611adb61211c61210e6121086120d16120cb612089608288018d611f6e565b7f7d2c207b2274726169745f74797065223a2022656e7465727461696e65645f6c81526f032bb32b6111610113b30b63ab2911d160851b602082015260300190565b8a611f6e565b7f7d2c207b2274726169745f74797065223a2022656c6174696f6e222c2276616c81526403ab2911d160dd1b602082015260250190565b87611f6e565b617d5d60f01b815260020190565b607d60f81b815260010190565b6000825161213b818460208701611959565b9190910192915050565b60006121518285611dc5565b8351612161818360208801611959565b01949350505050565b86815260006020878184015286604084015285606084015260c060808401526000855461219681611cd4565b8060c087015260e06001808416600081146121b857600181146121d257612200565b60ff1985168984015283151560051b890183019550612200565b8a6000528660002060005b858110156121f85781548b82018601529083019088016121dd565b8a0184019650505b505050505060a09390930193909352509695505050505050565b60208082526032908201527f4552433732313a207472616e7366657220746f206e6f6e20455243373231526560408201527131b2b4bb32b91034b6b83632b6b2b73a32b960711b606082015260800190565b60006001820161227e5761227e611d5c565b5060010190565b60008261229457612294611d85565b500690565b6001600160a01b03858116825284166020820152604081018390526080606082018190526000906122cc9083018461197d565b9695505050505050565b6000602082840312156122e857600080fd5b81516119528161191f56fea26469706673582212202fc45adbaa221f290405b44d53ab9ed7ea0cf2e52c7b0050d0b2487b1359c15d64736f6c63430008100033646174613a696d6167652f7376672b786d6c3b6261736536342c50484e325a79423462577875637a306e6148523063446f764c336433647935334d793576636d63764d6a41774d43397a646d636e494864705a48526f505363784d44416c4a79426f5a576c6e614851394a7a45774d43556e49485a705a586443623367394a7a41674d4341344d4441674f4441774a7a3438636d566a6443426d615778735053636a5a6d5a6d5a6d5a6d4a794233615752306144306e4f4441774a79426f5a576c6e614851394a7a67774d436376506a786b5a575a7a506a78795957527059577848636d466b61575675644342705a44306e59536367593367394a7a51774d43636759336b394a7a51774d436367636a306e4e5441754d53556e49476479595752705a5735305657357064484d394a33567a5a584a546347466a5a55397556584e6c4a7a3438633352766343416762325a6d63325630505363774a79427a644739774c574e76624739795053636a5a6d5a6d5a6d5a6d4a79382b50484e30623341674947396d5a6e4e6c6444306e4d536367633352766343316a62327876636a306e497a424652696376506a7776636d466b6157467352334a685a476c6c626e512b50484a685a476c6862456479595752705a57353049476c6b505364694a79426a6544306e4e4441774a79426a6554306e4e4441774a794279505363314d4334304a5363675a334a685a476c6c626e5256626d6c30637a306e64584e6c636c4e7759574e6c543235566332556e506a787a64473977494342765a6d5a7a5a5851394a7a416e49484e306233417459323973623349394a794e6d5a6d5a6d5a6d596e4c7a3438633352766343416762325a6d63325630505363784a79427a644739774c574e76624739795053636a4d455a474a79382b504339795957527059577848636d466b61575675644434384c32526c5a6e4d2b50484a6c593351675a6d6c736244306e64584a734b434e684b53636764326c6b644767394a7a67774d436367614756705a326830505363344d44416e4c7a34385a79426d615778734c57397759574e7064486b394a7a41754e53632b50484268644767675a6d6c736244306e64584a734b434e694b5363675a44306e54546b354f4334334944517a4f533479597a45754e7930794e693431494445754e7930314d693433494441754d5330334f433431544451774d53417a4f546b754f574d77494441674d4330774c6a45674d4330774c6a46734e5467334c6a59744d5445324c6a6c6a4c5455754d5330794e5334354c5445784c6a6b744e5445754d6930794d43347a4c5463314c6a684d4e4441774c6a6b674d7a6b354c6a646a4d434177494441744d433478494441744d4334786244557a4e79347a4c5449324e574d744d5445754e6930794d7934314c5449304c6a67744e4459754d69307a4f53347a4c5459334c6a6c4d4e4441774c6a67674d7a6b354c6a566a4d434177494441744d4334784c5441754d5330774c6a46734e4455774c6a51744d7a6b31597930784e79347a4c5445354c6a63744d7a55754f43307a4f4334794c5455314c6a55744e5455754e5777744d7a6b31494451314d433430597a41674d4330774c6a45674d4330774c6a45744d4334785444637a4d7934304c546b35597930794d5334334c5445304c6a55744e4451754e4330794e7934324c5459344c544d354c6a4e734c5449324e5341314d7a63754e474d77494441744d433478494441744d433478494442734d546b794c6a59744e5459334c6a526a4c5449304c6a59744f43347a4c5451354c6a6b744d5455754d5330334e5334344c5449774c6a4a4d4e4441774c6a49674d7a6b35597a41674d4330774c6a45674d4330774c6a45674d47777a4f5334794c5455354e793433597930794e6934314c5445754e7930314d6934334c5445754e7930334f4334314c5441754d55777a4f546b754f53417a4f546c6a4d4341774c5441754d5341774c5441754d534177544449344d6934354c5445344f433432597930794e533435494455754d5330314d533479494445784c6a6b744e7a55754f4341794d43347a624445354d693432494455324e793430597a41674d4330774c6a45674d4330774c6a45674d4777744d6a59314c54557a4e79347a597930794d793431494445784c6a59744e4459754d6941794e4334344c5459334c6a6b674d7a6b754d32777a4d7a49754f4341304f5467754d574d77494441744d433478494441744d433478494441754d5577304c6a51744e5445754d554d744d5455754d79307a4d7934354c544d7a4c6a67744d5455754d7930314d533478494451754e4777304e5441754e43417a4f54566a4d434177494441674d4334784c5441754d5341774c6a464d4c546b35494459324c6a5a6a4c5445304c6a55674d6a45754e7930794e793432494451304c6a51744d7a6b754d7941324f4777314d7a63754e4341794e6a566a4d434177494441674d433478494441674d433478624330314e6a63754e4330784f5449754e6d4d744f43347a494449304c6a59744d5455754d5341304f5334354c5449774c6a49674e7a55754f45777a4f546b674d7a6b354c6a686a4d434177494441674d433478494441674d433478624330314f5463754e79307a4f533479597930784c6a63674d6a59754e5330784c6a63674e5449754e7930774c6a45674e7a67754e55777a4f546b674e4441774c6a466a4d434177494441674d433478494441674d433478624330314f4463754e6941784d5459754f574d314c6a45674d6a55754f5341784d533435494455784c6a49674d6a41754d7941334e533434624455324e7934304c5445354d693432597a41674d434177494441754d534177494441754d5777744e544d334c6a4d674d6a5931597a45784c6a59674d6a4d754e5341794e433434494451324c6a49674d7a6b754d7941324e793435624451354f4334784c544d7a4d693434597a41674d434177494441754d5341774c6a45674d433478624330304e5441754e43417a4f54566a4d5463754d7941784f53343349444d314c6a67674d7a67754d6941314e533431494455314c6a56734d7a6b314c5451314d433430597a41674d4341774c6a45674d4341774c6a45674d433478544459324c6a59674f446b35597a49784c6a63674d5451754e5341304e433430494449334c6a59674e6a67674d7a6b754d3277794e6a55744e544d334c6a526a4d434177494441754d534177494441754d534177544449774e79347849446b324f43347a597a49304c6a59674f43347a494451354c6a6b674d5455754d5341334e533434494449774c6a4a4d4d7a6b354c6a67674e444178597a41674d4341774c6a45674d4341774c6a45674d4777744d7a6b754d6941314f5463754e324d794e693431494445754e7941314d693433494445754e7941334f433431494441754d5577304d4441754d5341304d44466a4d434177494441754d534177494441754d534177624445784e693435494455344e793432597a49314c6a6b744e533478494455784c6a49744d5445754f5341334e5334344c5449774c6a4e4d4e4441774c6a4d674e4441774c6a6c6a4d434177494441754d534177494441754d534177624449324e5341314d7a63754d324d794d7934314c5445784c6a59674e4459754d6930794e433434494459334c6a6b744d7a6b754d3077304d4441754e5341304d4441754f474d77494441674d433478494441674d4334784c5441754d57777a4f5455674e4455774c6a526a4d546b754e7930784e79347a49444d344c6a49744d7a55754f4341314e5334314c5455314c6a56734c5451314d4334304c544d354e574d77494441674d4330774c6a45674d4334784c5441754d5577344f546b674e7a4d7a4c6a526a4d5451754e5330794d533433494449334c6a59744e4451754e43417a4f53347a4c545934624330314d7a63754e4330794e6a566a4d434177494441744d433478494441744d433478624455324e793430494445354d693432597a67754d7930794e433432494445314c6a45744e446b754f5341794d4334794c5463314c6a684d4e444178494451774d433479597a41674d4341774c5441754d5341774c5441754d5577354f5467754e7941304d7a6b754d6e6f6e4c7a34384c32632b5048526c654851676544306e4e54416c4a794235505363314d43556e49474e7359584e7a5053646959584e6c4a79426b62323170626d46756443316959584e6c62476c755a54306e62576c6b5a47786c4a7942305a5868304c57467559326876636a306e62576c6b5a47786c4a79426d623235304c584e70656d55394a7a686c6253632b384a2b",
    "linkReferences": {}
  },
  "methodIdentifiers": {
    "approve(address,uint256)": "095ea7b3",
    "balanceOf(address)": "70a08231",
    "checkUpkeep()": "a13abdad",
    "checkUpkeep(bytes)": "6e04ff0d",
    "feed()": "37a7b7d8",
    "getApproved(uint256)": "081812fc",
    "isApprovedForAll(address,address)": "e985e9c5",
    "myPetEmoji()": "45515258",
    "name()": "06fdde03",
    "ownerOf(uint256)": "6352211e",
    "passTime(uint256)": "b09d662a",
    "performUpkeep(bytes)": "4585e33b",
    "petEmojiHolderAttributes(uint256)": "255fd5f3",
    "petEmojiHolders(address)": "f0eeabe5",
    "petEmojiStats(uint256)": "acbd1506",
    "play()": "93e84cd9",
    "safeMint(address)": "40d097c3",
    "safeTransferFrom(address,address,uint256)": "42842e0e",
    "safeTransferFrom(address,address,uint256,bytes)": "b88d4fde",
    "setApprovalForAll(address,bool)": "a22cb465",
    "supportsInterface(bytes4)": "01ffc9a7",
    "symbol()": "95d89b41",
    "tokenURI(uint256)": "c87b56dd",
    "transferFrom(address,address,uint256)": "23b872dd"
  },
  "id": 17
}